{
  "contractName": "User",
  "abi": [
    {
      "inputs": [],
      "payable": false,
      "stateMutability": "nonpayable",
      "type": "constructor"
    },
    {
      "constant": false,
      "inputs": [
        {
          "internalType": "uint128",
          "name": "trId",
          "type": "uint128"
        },
        {
          "internalType": "string",
          "name": "name",
          "type": "string"
        },
        {
          "internalType": "uint64",
          "name": "age",
          "type": "uint64"
        }
      ],
      "name": "setUser",
      "outputs": [],
      "payable": false,
      "stateMutability": "nonpayable",
      "type": "function"
    },
    {
      "constant": true,
      "inputs": [
        {
          "internalType": "uint128",
          "name": "trId",
          "type": "uint128"
        }
      ],
      "name": "getUser",
      "outputs": [
        {
          "internalType": "string",
          "name": "name",
          "type": "string"
        },
        {
          "internalType": "uint64",
          "name": "age",
          "type": "uint64"
        }
      ],
      "payable": false,
      "stateMutability": "view",
      "type": "function"
    }
  ],
  "bytecode": "0x608060405234801561001057600080fd5b50336000806101000a81548173ffffffffffffffffffffffffffffffffffffffff021916908373ffffffffffffffffffffffffffffffffffffffff16021790555061057b806100606000396000f3fe608060405234801561001057600080fd5b50600436106100365760003560e01c8063d90cea9d1461003b578063dd0552641461010f575b600080fd5b6100796004803603602081101561005157600080fd5b8101908080356fffffffffffffffffffffffffffffffff1690602001909291905050506101fa565b60405180806020018367ffffffffffffffff1667ffffffffffffffff168152602001828103825284818151815260200191508051906020019080838360005b838110156100d35780820151818401526020810190506100b8565b50505050905090810190601f1680156101005780820380516001836020036101000a031916815260200191505b50935050505060405180910390f35b6101f86004803603606081101561012557600080fd5b8101908080356fffffffffffffffffffffffffffffffff1690602001909291908035906020019064010000000081111561015e57600080fd5b82018360208201111561017057600080fd5b8035906020019184600183028401116401000000008311171561019257600080fd5b91908080601f016020809104026020016040519081016040528093929190818152602001838380828437600081840152601f19601f820116905080830192505050505050509192919290803567ffffffffffffffff169060200190929190505050610329565b005b6060600060016000846fffffffffffffffffffffffffffffffff166fffffffffffffffffffffffffffffffff1681526020019081526020016000206000018054600181600116156101000203166002900480601f0160208091040260200160405190810160405280929190818152602001828054600181600116156101000203166002900480156102cc5780601f106102a1576101008083540402835291602001916102cc565b820191906000526020600020905b8154815290600101906020018083116102af57829003601f168201915b5050505050915060016000846fffffffffffffffffffffffffffffffff166fffffffffffffffffffffffffffffffff16815260200190815260200160002060010160009054906101000a900467ffffffffffffffff169050915091565b600060016000856fffffffffffffffffffffffffffffffff166fffffffffffffffffffffffffffffffff16815260200190815260200160002060010160009054906101000a900467ffffffffffffffff1667ffffffffffffffff16146103f7576040517f08c379a00000000000000000000000000000000000000000000000000000000081526004018080602001828103825260158152602001807f5472616e73616374696f6e20496420657869737473000000000000000000000081525060200191505060405180910390fd5b60405180604001604052808381526020018267ffffffffffffffff1681525060016000856fffffffffffffffffffffffffffffffff166fffffffffffffffffffffffffffffffff16815260200190815260200160002060008201518160000190805190602001906104699291906104a1565b5060208201518160010160006101000a81548167ffffffffffffffff021916908367ffffffffffffffff160217905550905050505050565b828054600181600116156101000203166002900490600052602060002090601f016020900481019282601f106104e257805160ff1916838001178555610510565b82800160010185558215610510579182015b8281111561050f5782518255916020019190600101906104f4565b5b50905061051d9190610521565b5090565b61054391905b8082111561053f576000816000905550600101610527565b5090565b9056fea265627a7a7231582030afcf7663d9b2565c73590d952844c54124293bce1c2d38cd6c6a901b229cfa64736f6c63430005100032",
  "source": "pragma solidity ^0.5.0;\n\ncontract User {\n    // state variable\n    address nodeAddress;\n    \n    constructor () public {\n        nodeAddress = msg.sender;   \n    }\n    \n    // struct for storing user data\n    struct user {\n        string name;\n        uint64 age;\n    }\n    \n    // mapping to store the user details against transaction Id\n    mapping (uint128 => user) userData;\n    \n    // function to store user data\n    function setUser(uint128 trId, string memory name, uint64 age) public {\n        // check for duplicate userId\n        require (userData[trId].age == 0, 'Transaction Id exists');\n        userData[trId] = user(name, age);\n    }\n    \n    // function to retrieve user data\n    function getUser(uint128 trId) public view returns (string memory name, uint64 age) {\n        name = userData[trId].name;\n        age = userData[trId].age;\n    }\n\n}",
  "sourcePath": "D:\\LeewayHertz\\truffle\\contracts\\User.sol",
  "compiler": {
    "name": "solc",
    "version": "0.5.16+commit.9c3226ce.Emscripten.clang"
  },
  "schemaVersion": "3.0.23",
  "updatedAt": "2020-10-02T07:37:53.477Z",
  "devdoc": {
    "methods": {}
  },
  "userdoc": {
    "methods": {}
  }
}